{
  "contractName": "CommonWillFactory",
  "abi": [
    {
      "inputs": [
        {
          "internalType": "address",
          "name": "_master",
          "type": "address"
        }
      ],
      "stateMutability": "nonpayable",
      "type": "constructor"
    },
    {
      "anonymous": false,
      "inputs": [
        {
          "indexed": false,
          "internalType": "address",
          "name": "initialiser",
          "type": "address"
        },
        {
          "indexed": false,
          "internalType": "address",
          "name": "newCommonWill",
          "type": "address"
        },
        {
          "indexed": false,
          "internalType": "bytes32",
          "name": "conditionDataId",
          "type": "bytes32"
        }
      ],
      "name": "CommonWillCreated",
      "type": "event"
    },
    {
      "inputs": [
        {
          "internalType": "address",
          "name": "_judge",
          "type": "address"
        },
        {
          "internalType": "bytes32",
          "name": "_conditionDataId",
          "type": "bytes32"
        },
        {
          "internalType": "uint256",
          "name": "_processDueTime",
          "type": "uint256"
        },
        {
          "internalType": "uint256",
          "name": "_minPledge",
          "type": "uint256"
        },
        {
          "internalType": "uint256",
          "name": "_minPledgeDueTime",
          "type": "uint256"
        },
        {
          "internalType": "address",
          "name": "_pledgeToken",
          "type": "address"
        }
      ],
      "name": "createCommonWill",
      "outputs": [],
      "stateMutability": "nonpayable",
      "type": "function"
    }
  ],
  "bytecode": "0x608060405234801561001057600080fd5b506040516105d03803806105d08339818101604052810190610032919061008d565b806000806101000a81548173ffffffffffffffffffffffffffffffffffffffff021916908373ffffffffffffffffffffffffffffffffffffffff160217905550506100ff565b600081519050610087816100e8565b92915050565b60006020828403121561009f57600080fd5b60006100ad84828501610078565b91505092915050565b60006100c1826100c8565b9050919050565b600073ffffffffffffffffffffffffffffffffffffffff82169050919050565b6100f1816100b6565b81146100fc57600080fd5b50565b6104c28061010e6000396000f3fe608060405234801561001057600080fd5b506004361061002b5760003560e01c806338a2566a14610030575b600080fd5b61004a60048036038101906100459190610244565b61004c565b005b600061007760008054906101000a900473ffffffffffffffffffffffffffffffffffffffff16610130565b90508073ffffffffffffffffffffffffffffffffffffffff16636c28e34988878787876040518663ffffffff1660e01b81526004016100ba959493929190610354565b600060405180830381600087803b1580156100d457600080fd5b505af11580156100e8573d6000803e3d6000fd5b505050507fc0ad83af58164fcb5ea9ce1f9e748e0b82f0adcbd1246f5ce5c74e74d328af8133828860405161011f9392919061031d565b60405180910390a150505050505050565b60006040517f3d602d80600a3d3981f3363d3d373d3d3d363d7300000000000000000000000081528260601b60148201527f5af43d82803e903d91602b57fd5bf3000000000000000000000000000000000060288201526037816000f0915050600073ffffffffffffffffffffffffffffffffffffffff168173ffffffffffffffffffffffffffffffffffffffff161415610200576040517f08c379a00000000000000000000000000000000000000000000000000000000081526004016101f7906103a7565b60405180910390fd5b919050565b60008135905061021481610447565b92915050565b6000813590506102298161045e565b92915050565b60008135905061023e81610475565b92915050565b60008060008060008060c0878903121561025d57600080fd5b600061026b89828a01610205565b965050602061027c89828a0161021a565b955050604061028d89828a0161022f565b945050606061029e89828a0161022f565b93505060806102af89828a0161022f565b92505060a06102c089828a01610205565b9150509295509295509295565b6102d6816103d8565b82525050565b6102e5816103ea565b82525050565b60006102f86016836103c7565b91506103038261041e565b602082019050919050565b61031781610414565b82525050565b600060608201905061033260008301866102cd565b61033f60208301856102cd565b61034c60408301846102dc565b949350505050565b600060a08201905061036960008301886102cd565b610376602083018761030e565b610383604083018661030e565b610390606083018561030e565b61039d60808301846102cd565b9695505050505050565b600060208201905081810360008301526103c0816102eb565b9050919050565b600082825260208201905092915050565b60006103e3826103f4565b9050919050565b6000819050919050565b600073ffffffffffffffffffffffffffffffffffffffff82169050919050565b6000819050919050565b7f455243313136373a20637265617465206661696c656400000000000000000000600082015250565b610450816103d8565b811461045b57600080fd5b50565b610467816103ea565b811461047257600080fd5b50565b61047e81610414565b811461048957600080fd5b5056fea264697066735822122063e565b8b9f722dc36ce56860259aba5b60f77f95c80b58893576ae5148a276f64736f6c63430008020033",
  "immutableReferences": {},
  "source": "//// SPDX-License-Identifier: MIT\npragma solidity ^0.8.2;\n\n\nimport \"@openzeppelin/contracts/proxy/Clones.sol\";\nimport \"@openzeppelin/contracts/token/ERC20/IERC20.sol\";\nimport \"./CommonWill.sol\";\n\n\n/// @notice Factory for Common Will processes with single executor\ncontract CommonWillFactory {\n    CommonWill private master;\n\n    event CommonWillCreated(address initialiser, address newCommonWill, bytes32 conditionDataId);\n\n    /**\n     * @notice Constructor for CommonWillFactory contract\n     * @param _master Master implementation for the Common Will\n     */\n    constructor(address _master) {\n        master = CommonWill(_master);\n    }\n\n    /**\n    * @param _judge The judge in the process\n    * @param _conditionDataId Identifier of the condition for process success, e.g. an IPFS content identifier\n    * @param _processDueTime Final time of the process. If this time is reached with no suceess of the executor, \n       the process is considered as failed and pledgers can withraw their pledge\n    * @param _minPledge Minimal pledge required to reach within a predefined time. If not reached the process is considered \n       as failed and pledgers can withraw their pledge\n    * @param _minPledgeDueTime predefined time for the minimal pledge to be reached\n    * @param _pledgeToken The pledge token in the process\n    */\n    function createCommonWill(\n        address _judge,\n        bytes32 _conditionDataId,\n        uint _processDueTime,\n        uint _minPledge,\n        uint _minPledgeDueTime,\n        address _pledgeToken\n    )\n        external\n    {\n        address proxy = Clones.clone(address(master));\n        CommonWill(proxy).initialize(_judge, _processDueTime, _minPledge, _minPledgeDueTime,\n            _pledgeToken);\n\n        emit CommonWillCreated(msg.sender, proxy, _conditionDataId);\n    }\n}\n   \n",
  "sourcePath": "/Users/idogershtein/Documents/CommonWill/contracts/CommonWillFactory.sol",
  "compiler": {
    "name": "solc",
    "version": "0.8.2+commit.661d1103.Emscripten.clang"
  },
  "schemaVersion": "3.4.2",
  "updatedAt": "2021-09-26T06:57:30.325Z",
  "networkType": "ethereum",
  "devdoc": {
    "kind": "dev",
    "methods": {
      "constructor": {
        "params": {
          "_master": "Master implementation for the Common Will"
        }
      },
      "createCommonWill(address,bytes32,uint256,uint256,uint256,address)": {
        "params": {
          "_conditionDataId": "Identifier of the condition for process success, e.g. an IPFS content identifier",
          "_judge": "The judge in the process",
          "_minPledge": "Minimal pledge required to reach within a predefined time. If not reached the process is considered  as failed and pledgers can withraw their pledge",
          "_minPledgeDueTime": "predefined time for the minimal pledge to be reached",
          "_pledgeToken": "The pledge token in the process",
          "_processDueTime": "Final time of the process. If this time is reached with no suceess of the executor,  the process is considered as failed and pledgers can withraw their pledge"
        }
      }
    },
    "version": 1
  },
  "userdoc": {
    "kind": "user",
    "methods": {
      "constructor": {
        "notice": "Constructor for CommonWillFactory contract"
      }
    },
    "notice": "Factory for Common Will processes with single executor",
    "version": 1
  }
}