{
  "contractName": "CommonWill",
  "abi": [
    {
      "anonymous": false,
      "inputs": [
        {
          "indexed": true,
          "internalType": "address",
          "name": "from",
          "type": "address"
        },
        {
          "indexed": false,
          "internalType": "uint256",
          "name": "amount",
          "type": "uint256"
        }
      ],
      "name": "Pledge",
      "type": "event"
    },
    {
      "anonymous": false,
      "inputs": [
        {
          "indexed": true,
          "internalType": "address",
          "name": "redeemer",
          "type": "address"
        },
        {
          "indexed": false,
          "internalType": "uint256",
          "name": "executorTokensAmount",
          "type": "uint256"
        },
        {
          "indexed": false,
          "internalType": "uint256",
          "name": "gain",
          "type": "uint256"
        }
      ],
      "name": "Redeem",
      "type": "event"
    },
    {
      "anonymous": false,
      "inputs": [
        {
          "indexed": false,
          "internalType": "address",
          "name": "winner",
          "type": "address"
        }
      ],
      "name": "Success",
      "type": "event"
    },
    {
      "anonymous": false,
      "inputs": [
        {
          "indexed": false,
          "internalType": "uint256",
          "name": "time",
          "type": "uint256"
        },
        {
          "indexed": false,
          "internalType": "uint256",
          "name": "totalPledge",
          "type": "uint256"
        }
      ],
      "name": "TimeOutMinPledge",
      "type": "event"
    },
    {
      "anonymous": false,
      "inputs": [
        {
          "indexed": false,
          "internalType": "uint256",
          "name": "time",
          "type": "uint256"
        }
      ],
      "name": "TimeOutProcess",
      "type": "event"
    },
    {
      "anonymous": false,
      "inputs": [
        {
          "indexed": true,
          "internalType": "address",
          "name": "supporter",
          "type": "address"
        },
        {
          "indexed": false,
          "internalType": "uint256",
          "name": "amount",
          "type": "uint256"
        }
      ],
      "name": "WithrawPledge",
      "type": "event"
    },
    {
      "inputs": [],
      "name": "judge",
      "outputs": [
        {
          "internalType": "address",
          "name": "",
          "type": "address"
        }
      ],
      "stateMutability": "view",
      "type": "function",
      "constant": true
    },
    {
      "inputs": [],
      "name": "minPledge",
      "outputs": [
        {
          "internalType": "uint256",
          "name": "",
          "type": "uint256"
        }
      ],
      "stateMutability": "view",
      "type": "function",
      "constant": true
    },
    {
      "inputs": [],
      "name": "minPledgeDueTime",
      "outputs": [
        {
          "internalType": "uint256",
          "name": "",
          "type": "uint256"
        }
      ],
      "stateMutability": "view",
      "type": "function",
      "constant": true
    },
    {
      "inputs": [],
      "name": "pledgeToken",
      "outputs": [
        {
          "internalType": "contract IERC20",
          "name": "",
          "type": "address"
        }
      ],
      "stateMutability": "view",
      "type": "function",
      "constant": true
    },
    {
      "inputs": [
        {
          "internalType": "address",
          "name": "",
          "type": "address"
        }
      ],
      "name": "pledges",
      "outputs": [
        {
          "internalType": "uint256",
          "name": "",
          "type": "uint256"
        }
      ],
      "stateMutability": "view",
      "type": "function",
      "constant": true
    },
    {
      "inputs": [],
      "name": "processDueTime",
      "outputs": [
        {
          "internalType": "uint256",
          "name": "",
          "type": "uint256"
        }
      ],
      "stateMutability": "view",
      "type": "function",
      "constant": true
    },
    {
      "inputs": [],
      "name": "status",
      "outputs": [
        {
          "internalType": "enum CommonWill.Status",
          "name": "",
          "type": "uint8"
        }
      ],
      "stateMutability": "view",
      "type": "function",
      "constant": true
    },
    {
      "inputs": [],
      "name": "totalPledge",
      "outputs": [
        {
          "internalType": "uint256",
          "name": "",
          "type": "uint256"
        }
      ],
      "stateMutability": "view",
      "type": "function",
      "constant": true
    },
    {
      "inputs": [
        {
          "internalType": "address",
          "name": "_judge",
          "type": "address"
        },
        {
          "internalType": "uint256",
          "name": "_processDueTime",
          "type": "uint256"
        },
        {
          "internalType": "uint256",
          "name": "_minPledge",
          "type": "uint256"
        },
        {
          "internalType": "uint256",
          "name": "_minPledgeDueTime",
          "type": "uint256"
        },
        {
          "internalType": "address",
          "name": "_pledgeToken",
          "type": "address"
        }
      ],
      "name": "initialize",
      "outputs": [],
      "stateMutability": "nonpayable",
      "type": "function"
    },
    {
      "inputs": [
        {
          "internalType": "address",
          "name": "winner",
          "type": "address"
        }
      ],
      "name": "judgeSuccess",
      "outputs": [],
      "stateMutability": "nonpayable",
      "type": "function"
    },
    {
      "inputs": [
        {
          "internalType": "uint256",
          "name": "amount",
          "type": "uint256"
        }
      ],
      "name": "pledge",
      "outputs": [],
      "stateMutability": "nonpayable",
      "type": "function"
    },
    {
      "inputs": [],
      "name": "withrawPledge",
      "outputs": [],
      "stateMutability": "nonpayable",
      "type": "function"
    },
    {
      "inputs": [],
      "name": "timeOutProcess",
      "outputs": [
        {
          "internalType": "bool",
          "name": "",
          "type": "bool"
        }
      ],
      "stateMutability": "nonpayable",
      "type": "function"
    },
    {
      "inputs": [],
      "name": "timeOutMinPledge",
      "outputs": [
        {
          "internalType": "bool",
          "name": "",
          "type": "bool"
        }
      ],
      "stateMutability": "nonpayable",
      "type": "function"
    }
  ],
  "bytecode": "0x608060405234801561001057600080fd5b50611749806100206000396000f3fe608060405234801561001057600080fd5b50600436106100ea5760003560e01c806386e79bd91161008c578063aace53bd11610066578063aace53bd14610213578063c21a43e414610231578063f30d1f1e1461024f578063ff4450f51461026d576100ea565b806386e79bd9146101b95780639b4b1786146101d75780639c9ddef8146101f5576100ea565b806359d302c5116100c857806359d302c51461015b57806366dd53d5146101655780636c28e349146101815780637326c9c01461019d576100ea565b8063200d2ed2146100ef578063343576f51461010d578063573255f41461013d575b600080fd5b6100f761028b565b6040516101049190611263565b60405180910390f35b61012760048036038101906101229190610f5d565b61029e565b604051610134919061137e565b60405180910390f35b6101456102b6565b60405161015291906111b2565b60405180910390f35b6101636102dc565b005b61017f600480360381019061017a9190610f5d565b6105a7565b005b61019b60048036038101906101969190610f86565b610856565b005b6101b760048036038101906101b29190611026565b610a1b565b005b6101c1610c6f565b6040516101ce919061122d565b60405180910390f35b6101df610d9e565b6040516101ec919061137e565b60405180910390f35b6101fd610da4565b60405161020a9190611248565b60405180910390f35b61021b610dca565b604051610228919061122d565b60405180910390f35b610239610f0c565b604051610246919061137e565b60405180910390f35b610257610f12565b604051610264919061137e565b60405180910390f35b610275610f18565b604051610282919061137e565b60405180910390f35b600060029054906101000a900460ff1681565b60046020528060005260406000206000915090505481565b600060039054906101000a900473ffffffffffffffffffffffffffffffffffffffff1681565b6000600460003373ffffffffffffffffffffffffffffffffffffffff1673ffffffffffffffffffffffffffffffffffffffff16815260200190815260200160002054905060008111610363576040517f08c379a000000000000000000000000000000000000000000000000000000000815260040161035a9061127e565b60405180910390fd5b60028081111561039c577f4e487b7100000000000000000000000000000000000000000000000000000000600052602160045260246000fd5b600060029054906101000a900460ff1660028111156103e4577f4e487b7100000000000000000000000000000000000000000000000000000000600052602160045260246000fd5b14806103f457506103f3610dca565b5b806104035750610402610c6f565b5b15610569576000600460003373ffffffffffffffffffffffffffffffffffffffff1673ffffffffffffffffffffffffffffffffffffffff16815260200190815260200160002081905550806006600082825461045f9190611429565b92505081905550600560009054906101000a900473ffffffffffffffffffffffffffffffffffffffff1673ffffffffffffffffffffffffffffffffffffffff1663a9059cbb33836040518363ffffffff1660e01b81526004016104c3929190611204565b602060405180830381600087803b1580156104dd57600080fd5b505af11580156104f1573d6000803e3d6000fd5b505050506040513d601f19601f820116820180604052508101906105159190610ffd565b503373ffffffffffffffffffffffffffffffffffffffff167f2ffae5a0cb93da25fd812ec1a59b4c729c6f1dfd0cacd576d216ce5ff7e2da418260405161055c919061137e565b60405180910390a26105a4565b6040517f08c379a000000000000000000000000000000000000000000000000000000000815260040161059b9061135e565b60405180910390fd5b50565b600060039054906101000a900473ffffffffffffffffffffffffffffffffffffffff1673ffffffffffffffffffffffffffffffffffffffff163373ffffffffffffffffffffffffffffffffffffffff1614610637576040517f08c379a000000000000000000000000000000000000000000000000000000000815260040161062e906112be565b60405180910390fd5b61063f610dca565b1561067f576040517f08c379a00000000000000000000000000000000000000000000000000000000081526004016106769061129e565b60405180910390fd5b610687610c6f565b156106c7576040517f08c379a00000000000000000000000000000000000000000000000000000000081526004016106be906112de565b60405180910390fd5b600354421161070b576040517f08c379a0000000000000000000000000000000000000000000000000000000008152600401610702906112fe565b60405180910390fd5b6000600654905060006006819055506001600060026101000a81548160ff02191690836002811115610766577f4e487b7100000000000000000000000000000000000000000000000000000000600052602160045260246000fd5b0217905550600560009054906101000a900473ffffffffffffffffffffffffffffffffffffffff1673ffffffffffffffffffffffffffffffffffffffff1663a9059cbb83836040518363ffffffff1660e01b81526004016107c8929190611204565b602060405180830381600087803b1580156107e257600080fd5b505af11580156107f6573d6000803e3d6000fd5b505050506040513d601f19601f8201168201806040525081019061081a9190610ffd565b507fa573ab9d2e3543063328d76b80796e5c0940edfc89ac8074f2fc7833a9cf82928260405161084a91906111b2565b60405180910390a15050565b600060019054906101000a900460ff168061087c575060008054906101000a900460ff16155b6108bb576040517f08c379a00000000000000000000000000000000000000000000000000000000081526004016108b29061131e565b60405180910390fd5b60008060019054906101000a900460ff16159050801561090b576001600060016101000a81548160ff02191690831515021790555060016000806101000a81548160ff0219169083151502179055505b85600060036101000a81548173ffffffffffffffffffffffffffffffffffffffff021916908373ffffffffffffffffffffffffffffffffffffffff16021790555084600181905550836002819055508260038190555081600560006101000a81548173ffffffffffffffffffffffffffffffffffffffff021916908373ffffffffffffffffffffffffffffffffffffffff16021790555060008060026101000a81548160ff021916908360028111156109ed577f4e487b7100000000000000000000000000000000000000000000000000000000600052602160045260246000fd5b02179055508015610a135760008060016101000a81548160ff0219169083151502179055505b505050505050565b60006002811115610a55577f4e487b7100000000000000000000000000000000000000000000000000000000600052602160045260246000fd5b600060029054906101000a900460ff166002811115610a9d577f4e487b7100000000000000000000000000000000000000000000000000000000600052602160045260246000fd5b141580610aae5750610aad610dca565b5b80610abd5750610abc610c6f565b5b15610afd576040517f08c379a0000000000000000000000000000000000000000000000000000000008152600401610af49061133e565b60405180910390fd5b600560009054906101000a900473ffffffffffffffffffffffffffffffffffffffff1673ffffffffffffffffffffffffffffffffffffffff166323b872dd3330846040518463ffffffff1660e01b8152600401610b5c939291906111cd565b602060405180830381600087803b158015610b7657600080fd5b505af1158015610b8a573d6000803e3d6000fd5b505050506040513d601f19601f82011682018060405250810190610bae9190610ffd565b508060066000828254610bc191906113d3565b9250508190555080600460003373ffffffffffffffffffffffffffffffffffffffff1673ffffffffffffffffffffffffffffffffffffffff1681526020019081526020016000206000828254610c1791906113d3565b925050819055503373ffffffffffffffffffffffffffffffffffffffff167f5e91ea8ea1c46300eb761859be01d7b16d44389ef91e03a163a87413cbf55b9582604051610c64919061137e565b60405180910390a250565b6000806002811115610caa577f4e487b7100000000000000000000000000000000000000000000000000000000600052602160045260246000fd5b600060029054906101000a900460ff166002811115610cf2577f4e487b7100000000000000000000000000000000000000000000000000000000600052602160045260246000fd5b148015610d00575042600154105b15610d96577fa43fd39edb3566d8f64b3609b0372928f063310e2d5bbab78a51a50bf43613c142604051610d34919061137e565b60405180910390a16002600060026101000a81548160ff02191690836002811115610d88577f4e487b7100000000000000000000000000000000000000000000000000000000600052602160045260246000fd5b021790555060019050610d9b565b600090505b90565b60025481565b600560009054906101000a900473ffffffffffffffffffffffffffffffffffffffff1681565b6000806002811115610e05577f4e487b7100000000000000000000000000000000000000000000000000000000600052602160045260246000fd5b600060029054906101000a900460ff166002811115610e4d577f4e487b7100000000000000000000000000000000000000000000000000000000600052602160045260246000fd5b148015610e5b575042600354105b8015610e6a5750600254600654105b15610f04577ffb204ccae9191edd3ad64036285097b68f2bf17c9bd075ea3ef08c23aef587a942600654604051610ea2929190611399565b60405180910390a16002600060026101000a81548160ff02191690836002811115610ef6577f4e487b7100000000000000000000000000000000000000000000000000000000600052602160045260246000fd5b021790555060019050610f09565b600090505b90565b60065481565b60015481565b60035481565b600081359050610f2d816116ce565b92915050565b600081519050610f42816116e5565b92915050565b600081359050610f57816116fc565b92915050565b600060208284031215610f6f57600080fd5b6000610f7d84828501610f1e565b91505092915050565b600080600080600060a08688031215610f9e57600080fd5b6000610fac88828901610f1e565b9550506020610fbd88828901610f48565b9450506040610fce88828901610f48565b9350506060610fdf88828901610f48565b9250506080610ff088828901610f1e565b9150509295509295909350565b60006020828403121561100f57600080fd5b600061101d84828501610f33565b91505092915050565b60006020828403121561103857600080fd5b600061104684828501610f48565b91505092915050565b6110588161145d565b82525050565b6110678161146f565b82525050565b611076816114b8565b82525050565b611085816114dc565b82525050565b6000611098600d836113c2565b91506110a38261154c565b602082019050919050565b60006110bb6016836113c2565b91506110c682611575565b602082019050919050565b60006110de600a836113c2565b91506110e98261159e565b602082019050919050565b6000611101600f836113c2565b915061110c826115c7565b602082019050919050565b6000611124601e836113c2565b915061112f826115f0565b602082019050919050565b6000611147602e836113c2565b915061115282611619565b604082019050919050565b600061116a6017836113c2565b915061117582611668565b602082019050919050565b600061118d601d836113c2565b915061119882611691565b602082019050919050565b6111ac816114ae565b82525050565b60006020820190506111c7600083018461104f565b92915050565b60006060820190506111e2600083018661104f565b6111ef602083018561104f565b6111fc60408301846111a3565b949350505050565b6000604082019050611219600083018561104f565b61122660208301846111a3565b9392505050565b6000602082019050611242600083018461105e565b92915050565b600060208201905061125d600083018461106d565b92915050565b6000602082019050611278600083018461107c565b92915050565b600060208201905081810360008301526112978161108b565b9050919050565b600060208201905081810360008301526112b7816110ae565b9050919050565b600060208201905081810360008301526112d7816110d1565b9050919050565b600060208201905081810360008301526112f7816110f4565b9050919050565b6000602082019050818103600083015261131781611117565b9050919050565b600060208201905081810360008301526113378161113a565b9050919050565b600060208201905081810360008301526113578161115d565b9050919050565b6000602082019050818103600083015261137781611180565b9050919050565b600060208201905061139360008301846111a3565b92915050565b60006040820190506113ae60008301856111a3565b6113bb60208301846111a3565b9392505050565b600082825260208201905092915050565b60006113de826114ae565b91506113e9836114ae565b9250827fffffffffffffffffffffffffffffffffffffffffffffffffffffffffffffffff0382111561141e5761141d6114ee565b5b828201905092915050565b6000611434826114ae565b915061143f836114ae565b925082821015611452576114516114ee565b5b828203905092915050565b60006114688261148e565b9050919050565b60008115159050919050565b6000819050611489826116ba565b919050565b600073ffffffffffffffffffffffffffffffffffffffff82169050919050565b6000819050919050565b60006114c3826114ca565b9050919050565b60006114d58261148e565b9050919050565b60006114e78261147b565b9050919050565b7f4e487b7100000000000000000000000000000000000000000000000000000000600052601160045260246000fd5b7f4e487b7100000000000000000000000000000000000000000000000000000000600052602160045260246000fd5b7f4f6e6c7920706c65646765727300000000000000000000000000000000000000600082015250565b7f4d696e696d616c20706c656467652074696d656f757400000000000000000000600082015250565b7f4f6e6c79206a7564676500000000000000000000000000000000000000000000600082015250565b7f50726f636573732074696d656f75740000000000000000000000000000000000600082015250565b7f4f6e6c79206166746572206d696e696d616c20706c656467652074696d650000600082015250565b7f496e697469616c697a61626c653a20636f6e747261637420697320616c72656160008201527f647920696e697469616c697a6564000000000000000000000000000000000000602082015250565b7f506c656467652077696e646f7720697320636c6f736564000000000000000000600082015250565b7f77697468726177206e6f7420616c6c6f7765642063757272656e746c79000000600082015250565b600381106116cb576116ca61151d565b5b50565b6116d78161145d565b81146116e257600080fd5b50565b6116ee8161146f565b81146116f957600080fd5b50565b611705816114ae565b811461171057600080fd5b5056fea2646970667358221220aae8088da2615b02be52de5f7287b255f0447ca7ead8dacd6c3c87b719f7cf6364736f6c63430008020033",
  "immutableReferences": {},
  "source": "// SPDX-License-Identifier: MIT\npragma solidity ^0.8.2;\n\nimport \"@openzeppelin/contracts/token/ERC20/IERC20.sol\";\nimport \"@openzeppelin/contracts/proxy/utils/Initializable.sol\";\n\n/// @notice Common Good process \ncontract CommonWill is Initializable { \n\n    enum Status{PROCESS_ACTIVE, PROCESS_SUCCESS, PROCESS_FAILURE}\n\n    Status public status; \n    address public judge;\n    uint public processDueTime;\n    uint public minPledge;\n    uint public minPledgeDueTime;\n    mapping(address => uint) public pledges;\n    IERC20 public pledgeToken;\n    uint public totalPledge;\n\n    event Pledge(address indexed from, uint amount);\n    event Success(address winner);\n    event TimeOutProcess(uint time);\n    event TimeOutMinPledge(uint time, uint totalPledge);\n    event WithrawPledge(address indexed supporter, uint amount);\n    event Redeem(address indexed redeemer, uint executorTokensAmount, uint gain);\n\n    /**\n    * @param _judge The judge in the process\n    * @param _processDueTime Final time of the process. If this time is reached with no suceess of the executor, \n       the process is considered as failed and pledgers can withraw their pledge\n    * @param _minPledge Minimal pledge required to reach within a predefined time. If not reached the process is considered \n       as failed and pledgers can withraw their pledge\n    * @param _minPledgeDueTime predefined time for the minimal pledge to be reached\n    * @param _pledgeToken The pledge token in the process\n    */\n    function initialize(\n        address _judge,\n        uint _processDueTime,\n        uint _minPledge,\n        uint _minPledgeDueTime,\n        address _pledgeToken\n        )\n        public initializer\n    { \n        judge = _judge;\n        processDueTime = _processDueTime;\n        minPledge = _minPledge;\n        minPledgeDueTime = _minPledgeDueTime;\n        pledgeToken = IERC20(_pledgeToken);\n        status = Status.PROCESS_ACTIVE;\n    }\n\n    /**\n    * @notice Called by the judge to decide that an executor succeeded. Allowed only after minimal pledge time and amount have\n    *  been reached and before process timeout.\n    */\n    function judgeSuccess(address winner) public \n    {\n        require(msg.sender == judge, \"Only judge\");\n        require(!timeOutMinPledge(), \"Minimal pledge timeout\");\n        require(!timeOutProcess(), \"Process timeout\");\n        require(block.timestamp > minPledgeDueTime, \"Only after minimal pledge time\");\n\n        uint totalPledgeTemp = totalPledge;\n        totalPledge = 0;\n        status = Status.PROCESS_SUCCESS;\n        pledgeToken.transfer(winner, totalPledgeTemp);\n        emit Success(winner);\n    }\n\n    /**\n    * @notice Contribute a pledge for the process. Allowed while the process has not timed out or has been finalized by the judge\n    * @param amount The amount of tokens to pledge\n    * @dev An approve of the ERC20 token is required before calling this function  \n    */\n    function pledge(uint amount) public  {\n        if (status != Status.PROCESS_ACTIVE || timeOutMinPledge() || timeOutProcess()){\n            revert(\"Pledge window is closed\");\n        }\n\n        pledgeToken.transferFrom(msg.sender, address(this), amount);\n        totalPledge += amount;\n        pledges[msg.sender] += amount;\n        emit Pledge(msg.sender, amount);\n    }\n\n\n    /**\n    * @notice Withraw pledge in case the process has failed\n    */\n    function withrawPledge() public \n    {\n        uint pledgeAmount = pledges[msg.sender];\n        require(pledgeAmount > 0, \"Only pledgers\");\n        if (status == Status.PROCESS_FAILURE ||\n            timeOutMinPledge() || \n            timeOutProcess())\n        {\n            pledges[msg.sender] = 0; \n            totalPledge -= pledgeAmount;\n            pledgeToken.transfer(msg.sender, pledgeAmount);\n            emit WithrawPledge(msg.sender, pledgeAmount);\n        }\n        else{\n            revert(\"withraw not allowed currently\");\n        }\n    }\n\n    /**\n    * @notice check if process timeout was reached without success\n    */\n    function timeOutProcess() public returns(bool){\n        if ((status == Status.PROCESS_ACTIVE)  && (processDueTime < block.timestamp)){\n            emit TimeOutProcess(block.timestamp); \n            status = Status.PROCESS_FAILURE;\n            return true;\n        }\n        return false;\n    }\n\n    /**\n    * @notice check if minimal pledge amount was not reached within the predefined time\n    */\n    function timeOutMinPledge() public returns(bool){\n        if ((status == Status.PROCESS_ACTIVE) && minPledgeDueTime < block.timestamp && totalPledge < minPledge){\n            emit TimeOutMinPledge(block.timestamp, totalPledge); \n            status = Status.PROCESS_FAILURE;\n            return true;\n        }\n        return false;\n    }\n}",
  "sourcePath": "/Users/idogershtein/Documents/CommonWill/contracts/CommonWill.sol",
  "compiler": {
    "name": "solc",
    "version": "0.8.2+commit.661d1103.Emscripten.clang"
  },
  "schemaVersion": "3.4.2",
  "updatedAt": "2021-09-26T06:57:30.319Z",
  "networkType": "ethereum",
  "devdoc": {
    "kind": "dev",
    "methods": {
      "initialize(address,uint256,uint256,uint256,address)": {
        "params": {
          "_judge": "The judge in the process",
          "_minPledge": "Minimal pledge required to reach within a predefined time. If not reached the process is considered  as failed and pledgers can withraw their pledge",
          "_minPledgeDueTime": "predefined time for the minimal pledge to be reached",
          "_pledgeToken": "The pledge token in the process",
          "_processDueTime": "Final time of the process. If this time is reached with no suceess of the executor,  the process is considered as failed and pledgers can withraw their pledge"
        }
      },
      "pledge(uint256)": {
        "details": "An approve of the ERC20 token is required before calling this function  ",
        "params": {
          "amount": "The amount of tokens to pledge"
        }
      }
    },
    "version": 1
  },
  "userdoc": {
    "kind": "user",
    "methods": {
      "judgeSuccess(address)": {
        "notice": "Called by the judge to decide that an executor succeeded. Allowed only after minimal pledge time and amount have  been reached and before process timeout."
      },
      "pledge(uint256)": {
        "notice": "Contribute a pledge for the process. Allowed while the process has not timed out or has been finalized by the judge"
      },
      "timeOutMinPledge()": {
        "notice": "check if minimal pledge amount was not reached within the predefined time"
      },
      "timeOutProcess()": {
        "notice": "check if process timeout was reached without success"
      },
      "withrawPledge()": {
        "notice": "Withraw pledge in case the process has failed"
      }
    },
    "notice": "Common Good process ",
    "version": 1
  }
}